{
  "contractName": "TestContract",
  "abi": [
    {
      "inputs": [
        {
          "internalType": "contract IERC721Token",
          "name": "token",
          "type": "address"
        },
        {
          "internalType": "address",
          "name": "owner",
          "type": "address"
        },
        {
          "internalType": "address",
          "name": "to",
          "type": "address"
        },
        {
          "internalType": "uint256",
          "name": "tokenId",
          "type": "uint256"
        }
      ],
      "name": "_transferERC721AssetFrom",
      "outputs": [],
      "stateMutability": "nonpayable",
      "type": "function"
    },
    {
      "inputs": [
        {
          "internalType": "address",
          "name": "token",
          "type": "address"
        },
        {
          "internalType": "address",
          "name": "owner",
          "type": "address"
        },
        {
          "internalType": "address",
          "name": "to",
          "type": "address"
        },
        {
          "internalType": "uint256",
          "name": "tokenId",
          "type": "uint256"
        }
      ],
      "name": "_delegateTransferERC721AssetFrom",
      "outputs": [],
      "stateMutability": "nonpayable",
      "type": "function"
    }
  ],
  "bytecode": "0x608060405234801561001057600080fd5b5061049f806100206000396000f3fe608060405234801561001057600080fd5b50600436106100365760003560e01c80630b91ad901461003b57806326584cc414610057575b600080fd5b61005560048036038101906100509190610280565b610073565b005b610071600480360381019061006c9190610325565b610172565b005b8373ffffffffffffffffffffffffffffffffffffffff1683838360405160240161009f939291906103aa565b6040516020818303038152906040527f23b872dd000000000000000000000000000000000000000000000000000000007bffffffffffffffffffffffffffffffffffffffffffffffffffffffff19166020820180517bffffffffffffffffffffffffffffffffffffffffffffffffffffffff83818316178352505050506040516101299190610452565b600060405180830381855af49150503d8060008114610164576040519150601f19603f3d011682016040523d82523d6000602084013e610169565b606091505b50505050505050565b8373ffffffffffffffffffffffffffffffffffffffff166323b872dd8484846040518463ffffffff1660e01b81526004016101af939291906103aa565b600060405180830381600087803b1580156101c957600080fd5b505af11580156101dd573d6000803e3d6000fd5b5050505050505050565b600080fd5b600073ffffffffffffffffffffffffffffffffffffffff82169050919050565b6000610217826101ec565b9050919050565b6102278161020c565b811461023257600080fd5b50565b6000813590506102448161021e565b92915050565b6000819050919050565b61025d8161024a565b811461026857600080fd5b50565b60008135905061027a81610254565b92915050565b6000806000806080858703121561029a576102996101e7565b5b60006102a887828801610235565b94505060206102b987828801610235565b93505060406102ca87828801610235565b92505060606102db8782880161026b565b91505092959194509250565b60006102f28261020c565b9050919050565b610302816102e7565b811461030d57600080fd5b50565b60008135905061031f816102f9565b92915050565b6000806000806080858703121561033f5761033e6101e7565b5b600061034d87828801610310565b945050602061035e87828801610235565b935050604061036f87828801610235565b92505060606103808782880161026b565b91505092959194509250565b6103958161020c565b82525050565b6103a48161024a565b82525050565b60006060820190506103bf600083018661038c565b6103cc602083018561038c565b6103d9604083018461039b565b949350505050565b600081519050919050565b600081905092915050565b60005b838110156104155780820151818401526020810190506103fa565b60008484015250505050565b600061042c826103e1565b61043681856103ec565b93506104468185602086016103f7565b80840191505092915050565b600061045e8284610421565b91508190509291505056fea26469706673582212202be227923f553e123c2f07c46721ecfa45094da29c652a13fffe01d8e47c584b64736f6c63430008100033",
  "immutableReferences": {},
  "source": "pragma solidity ^0.8;\npragma experimental ABIEncoderV2;\n\nimport \"./IERC721.sol\";\n\ncontract TestContract {\n    function _transferERC721AssetFrom(\n        IERC721Token token,\n        address owner,\n        address to,\n        uint256 tokenId\n    )\n        external\n    {\n        token.transferFrom(owner, to, tokenId);\n    }\n\n    function _delegateTransferERC721AssetFrom(\n        address token,\n        address owner,\n        address to,\n        uint256 tokenId\n    )\n    external\n    {\n        token.delegatecall(\n            abi.encodeWithSignature(\"transferFrom(address,address,uint256)\", owner, to, tokenId)\n        );\n    }\n\n}\n",
  "sourcePath": "/Users/piotrswierzy/Work/HederaBug_INVALID_FULL_PREFIX_SIGNATURE_FOR_PRECOMPILE/contracts/TestContract.sol",
  "compiler": {
    "name": "solc",
    "version": "0.8.16+commit.07a7930e.Emscripten.clang"
  },
  "schemaVersion": "3.4.9",
  "updatedAt": "2022-11-10T10:38:43.445Z",
  "devdoc": {
    "kind": "dev",
    "methods": {},
    "version": 1
  },
  "userdoc": {
    "kind": "user",
    "methods": {},
    "version": 1
  }
}