{
  "contractName": "TestContract",
  "abi": [
    {
      "inputs": [
        {
          "internalType": "contract IERC721Token",
          "name": "token",
          "type": "address"
        },
        {
          "internalType": "address",
          "name": "owner",
          "type": "address"
        },
        {
          "internalType": "address",
          "name": "to",
          "type": "address"
        },
        {
          "internalType": "uint256",
          "name": "tokenId",
          "type": "uint256"
        }
      ],
      "name": "_transferERC721AssetFrom",
      "outputs": [],
      "stateMutability": "nonpayable",
      "type": "function"
    }
  ],
  "bytecode": "0x608060405234801561001057600080fd5b5061028a806100206000396000f3fe608060405234801561001057600080fd5b506004361061002b5760003560e01c806326584cc414610030575b600080fd5b61004a60048036038101906100459190610198565b61004c565b005b8373ffffffffffffffffffffffffffffffffffffffff166323b872dd8484846040518463ffffffff1660e01b81526004016100899392919061021d565b600060405180830381600087803b1580156100a357600080fd5b505af11580156100b7573d6000803e3d6000fd5b5050505050505050565b600080fd5b600073ffffffffffffffffffffffffffffffffffffffff82169050919050565b60006100f1826100c6565b9050919050565b6000610103826100e6565b9050919050565b610113816100f8565b811461011e57600080fd5b50565b6000813590506101308161010a565b92915050565b61013f816100e6565b811461014a57600080fd5b50565b60008135905061015c81610136565b92915050565b6000819050919050565b61017581610162565b811461018057600080fd5b50565b6000813590506101928161016c565b92915050565b600080600080608085870312156101b2576101b16100c1565b5b60006101c087828801610121565b94505060206101d18782880161014d565b93505060406101e28782880161014d565b92505060606101f387828801610183565b91505092959194509250565b610208816100e6565b82525050565b61021781610162565b82525050565b600060608201905061023260008301866101ff565b61023f60208301856101ff565b61024c604083018461020e565b94935050505056fea264697066735822122016ce2733dc8e4462a77d759522857b730fda72f6d788cd15f59262a478474dad64736f6c63430008100033",
  "immutableReferences": {},
  "source": "pragma solidity ^0.8;\npragma experimental ABIEncoderV2;\n\nimport \"./IERC721.sol\";\n\ncontract TestContract {\n    function _transferERC721AssetFrom(\n        IERC721Token token,\n        address owner,\n        address to,\n        uint256 tokenId\n    )\n        external\n    {\n        token.transferFrom(owner, to, tokenId);\n    }\n\n}",
  "sourcePath": "/Users/piotrswierzy/Work/hedera-bug/contracts/TestContract.sol",
  "compiler": {
    "name": "solc",
    "version": "0.8.16+commit.07a7930e.Emscripten.clang"
  },
  "schemaVersion": "3.4.9",
  "updatedAt": "2022-11-07T09:41:15.491Z",
  "devdoc": {
    "kind": "dev",
    "methods": {},
    "version": 1
  },
  "userdoc": {
    "kind": "user",
    "methods": {},
    "version": 1
  }
}